{
  "contractName": "TNT20",
  "abi": [
    {
      "inputs": [
        {
          "internalType": "string",
          "name": "name",
          "type": "string"
        },
        {
          "internalType": "string",
          "name": "symbol",
          "type": "string"
        },
        {
          "internalType": "address",
          "name": "initDistrWallet",
          "type": "address"
        },
        {
          "internalType": "uint256",
          "name": "initMintAmount",
          "type": "uint256"
        },
        {
          "internalType": "address",
          "name": "adminAddr",
          "type": "address"
        }
      ],
      "stateMutability": "nonpayable",
      "type": "constructor"
    },
    {
      "inputs": [
        {
          "internalType": "address",
          "name": "spender",
          "type": "address"
        },
        {
          "internalType": "uint256",
          "name": "allowance",
          "type": "uint256"
        },
        {
          "internalType": "uint256",
          "name": "needed",
          "type": "uint256"
        }
      ],
      "name": "ERC20InsufficientAllowance",
      "type": "error"
    },
    {
      "inputs": [
        {
          "internalType": "address",
          "name": "sender",
          "type": "address"
        },
        {
          "internalType": "uint256",
          "name": "balance",
          "type": "uint256"
        },
        {
          "internalType": "uint256",
          "name": "needed",
          "type": "uint256"
        }
      ],
      "name": "ERC20InsufficientBalance",
      "type": "error"
    },
    {
      "inputs": [
        {
          "internalType": "address",
          "name": "approver",
          "type": "address"
        }
      ],
      "name": "ERC20InvalidApprover",
      "type": "error"
    },
    {
      "inputs": [
        {
          "internalType": "address",
          "name": "receiver",
          "type": "address"
        }
      ],
      "name": "ERC20InvalidReceiver",
      "type": "error"
    },
    {
      "inputs": [
        {
          "internalType": "address",
          "name": "sender",
          "type": "address"
        }
      ],
      "name": "ERC20InvalidSender",
      "type": "error"
    },
    {
      "inputs": [
        {
          "internalType": "address",
          "name": "spender",
          "type": "address"
        }
      ],
      "name": "ERC20InvalidSpender",
      "type": "error"
    },
    {
      "anonymous": false,
      "inputs": [
        {
          "indexed": true,
          "internalType": "address",
          "name": "owner",
          "type": "address"
        },
        {
          "indexed": true,
          "internalType": "address",
          "name": "spender",
          "type": "address"
        },
        {
          "indexed": false,
          "internalType": "uint256",
          "name": "value",
          "type": "uint256"
        }
      ],
      "name": "Approval",
      "type": "event"
    },
    {
      "anonymous": false,
      "inputs": [
        {
          "indexed": true,
          "internalType": "address",
          "name": "from",
          "type": "address"
        },
        {
          "indexed": true,
          "internalType": "address",
          "name": "to",
          "type": "address"
        },
        {
          "indexed": false,
          "internalType": "uint256",
          "name": "value",
          "type": "uint256"
        }
      ],
      "name": "Transfer",
      "type": "event"
    },
    {
      "anonymous": false,
      "inputs": [
        {
          "indexed": false,
          "internalType": "address",
          "name": "newAdmin",
          "type": "address"
        }
      ],
      "name": "UpdateAdmin",
      "type": "event"
    },
    {
      "inputs": [],
      "name": "admin",
      "outputs": [
        {
          "internalType": "address",
          "name": "",
          "type": "address"
        }
      ],
      "stateMutability": "view",
      "type": "function"
    },
    {
      "inputs": [
        {
          "internalType": "address",
          "name": "owner",
          "type": "address"
        },
        {
          "internalType": "address",
          "name": "spender",
          "type": "address"
        }
      ],
      "name": "allowance",
      "outputs": [
        {
          "internalType": "uint256",
          "name": "",
          "type": "uint256"
        }
      ],
      "stateMutability": "view",
      "type": "function"
    },
    {
      "inputs": [
        {
          "internalType": "address",
          "name": "spender",
          "type": "address"
        },
        {
          "internalType": "uint256",
          "name": "value",
          "type": "uint256"
        }
      ],
      "name": "approve",
      "outputs": [
        {
          "internalType": "bool",
          "name": "",
          "type": "bool"
        }
      ],
      "stateMutability": "nonpayable",
      "type": "function"
    },
    {
      "inputs": [
        {
          "internalType": "address",
          "name": "account",
          "type": "address"
        }
      ],
      "name": "balanceOf",
      "outputs": [
        {
          "internalType": "uint256",
          "name": "",
          "type": "uint256"
        }
      ],
      "stateMutability": "view",
      "type": "function"
    },
    {
      "inputs": [],
      "name": "decimals",
      "outputs": [
        {
          "internalType": "uint8",
          "name": "",
          "type": "uint8"
        }
      ],
      "stateMutability": "view",
      "type": "function"
    },
    {
      "inputs": [],
      "name": "name",
      "outputs": [
        {
          "internalType": "string",
          "name": "",
          "type": "string"
        }
      ],
      "stateMutability": "view",
      "type": "function"
    },
    {
      "inputs": [],
      "name": "symbol",
      "outputs": [
        {
          "internalType": "string",
          "name": "",
          "type": "string"
        }
      ],
      "stateMutability": "view",
      "type": "function"
    },
    {
      "inputs": [],
      "name": "totalSupply",
      "outputs": [
        {
          "internalType": "uint256",
          "name": "",
          "type": "uint256"
        }
      ],
      "stateMutability": "view",
      "type": "function"
    },
    {
      "inputs": [
        {
          "internalType": "address",
          "name": "to",
          "type": "address"
        },
        {
          "internalType": "uint256",
          "name": "value",
          "type": "uint256"
        }
      ],
      "name": "transfer",
      "outputs": [
        {
          "internalType": "bool",
          "name": "",
          "type": "bool"
        }
      ],
      "stateMutability": "nonpayable",
      "type": "function"
    },
    {
      "inputs": [
        {
          "internalType": "address",
          "name": "from",
          "type": "address"
        },
        {
          "internalType": "address",
          "name": "to",
          "type": "address"
        },
        {
          "internalType": "uint256",
          "name": "value",
          "type": "uint256"
        }
      ],
      "name": "transferFrom",
      "outputs": [
        {
          "internalType": "bool",
          "name": "",
          "type": "bool"
        }
      ],
      "stateMutability": "nonpayable",
      "type": "function"
    },
    {
      "inputs": [
        {
          "internalType": "address",
          "name": "receiver",
          "type": "address"
        },
        {
          "internalType": "uint256",
          "name": "amount",
          "type": "uint256"
        }
      ],
      "name": "mint",
      "outputs": [],
      "stateMutability": "nonpayable",
      "type": "function"
    },
    {
      "inputs": [
        {
          "internalType": "address",
          "name": "adminAddr",
          "type": "address"
        }
      ],
      "name": "updateAdmin",
      "outputs": [],
      "stateMutability": "nonpayable",
      "type": "function"
    }
  ],
  "bytecode": "0x608060405234801562000010575f80fd5b5060405162001c0238038062001c028339818101604052810190620000369190620005e1565b84848160039081620000499190620008d1565b5080600490816200005b9190620008d1565b5050506200007083836200011560201b60201c565b8060055f6101000a81548173ffffffffffffffffffffffffffffffffffffffff021916908373ffffffffffffffffffffffffffffffffffffffff1602179055507fbfc8d7754fec5096becc28e0816011e8d0adcfe752ffa1c88924a7f88b00a41d60055f9054906101000a900473ffffffffffffffffffffffffffffffffffffffff16604051620001029190620009c6565b60405180910390a1505050505062000aaf565b5f73ffffffffffffffffffffffffffffffffffffffff168273ffffffffffffffffffffffffffffffffffffffff160362000188575f6040517fec442f050000000000000000000000000000000000000000000000000000000081526004016200017f9190620009c6565b60405180910390fd5b6200019b5f83836200019f60201b60201c565b5050565b5f73ffffffffffffffffffffffffffffffffffffffff168373ffffffffffffffffffffffffffffffffffffffff1603620001f3578060025f828254620001e6919062000a0e565b92505081905550620002c4565b5f805f8573ffffffffffffffffffffffffffffffffffffffff1673ffffffffffffffffffffffffffffffffffffffff1681526020019081526020015f20549050818110156200027f578381836040517fe450d38c000000000000000000000000000000000000000000000000000000008152600401620002769392919062000a59565b60405180910390fd5b8181035f808673ffffffffffffffffffffffffffffffffffffffff1673ffffffffffffffffffffffffffffffffffffffff1681526020019081526020015f2081905550505b5f73ffffffffffffffffffffffffffffffffffffffff168273ffffffffffffffffffffffffffffffffffffffff16036200030d578060025f828254039250508190555062000357565b805f808473ffffffffffffffffffffffffffffffffffffffff1673ffffffffffffffffffffffffffffffffffffffff1681526020019081526020015f205f82825401925050819055505b8173ffffffffffffffffffffffffffffffffffffffff168373ffffffffffffffffffffffffffffffffffffffff167fddf252ad1be2c89b69c2b068fc378daa952ba7f163c4a11628f55a4df523b3ef83604051620003b6919062000a94565b60405180910390a3505050565b5f604051905090565b5f80fd5b5f80fd5b5f80fd5b5f80fd5b5f601f19601f8301169050919050565b7f4e487b71000000000000000000000000000000000000000000000000000000005f52604160045260245ffd5b6200042482620003dc565b810181811067ffffffffffffffff82111715620004465762000445620003ec565b5b80604052505050565b5f6200045a620003c3565b905062000468828262000419565b919050565b5f67ffffffffffffffff8211156200048a5762000489620003ec565b5b6200049582620003dc565b9050602081019050919050565b5f5b83811015620004c1578082015181840152602081019050620004a4565b5f8484015250505050565b5f620004e2620004dc846200046d565b6200044f565b905082815260208101848484011115620005015762000500620003d8565b5b6200050e848285620004a2565b509392505050565b5f82601f8301126200052d576200052c620003d4565b5b81516200053f848260208601620004cc565b91505092915050565b5f73ffffffffffffffffffffffffffffffffffffffff82169050919050565b5f620005738262000548565b9050919050565b620005858162000567565b811462000590575f80fd5b50565b5f81519050620005a3816200057a565b92915050565b5f819050919050565b620005bd81620005a9565b8114620005c8575f80fd5b50565b5f81519050620005db81620005b2565b92915050565b5f805f805f60a08688031215620005fd57620005fc620003cc565b5b5f86015167ffffffffffffffff8111156200061d576200061c620003d0565b5b6200062b8882890162000516565b955050602086015167ffffffffffffffff8111156200064f576200064e620003d0565b5b6200065d8882890162000516565b9450506040620006708882890162000593565b93505060606200068388828901620005cb565b9250506080620006968882890162000593565b9150509295509295909350565b5f81519050919050565b7f4e487b71000000000000000000000000000000000000000000000000000000005f52602260045260245ffd5b5f6002820490506001821680620006f257607f821691505b602082108103620007085762000707620006ad565b5b50919050565b5f819050815f5260205f209050919050565b5f6020601f8301049050919050565b5f82821b905092915050565b5f600883026200076c7fffffffffffffffffffffffffffffffffffffffffffffffffffffffffffffffff826200072f565b6200077886836200072f565b95508019841693508086168417925050509392505050565b5f819050919050565b5f620007b9620007b3620007ad84620005a9565b62000790565b620005a9565b9050919050565b5f819050919050565b620007d48362000799565b620007ec620007e382620007c0565b8484546200073b565b825550505050565b5f90565b62000802620007f4565b6200080f818484620007c9565b505050565b5b8181101562000836576200082a5f82620007f8565b60018101905062000815565b5050565b601f82111562000885576200084f816200070e565b6200085a8462000720565b810160208510156200086a578190505b62000882620008798562000720565b83018262000814565b50505b505050565b5f82821c905092915050565b5f620008a75f19846008026200088a565b1980831691505092915050565b5f620008c1838362000896565b9150826002028217905092915050565b620008dc82620006a3565b67ffffffffffffffff811115620008f857620008f7620003ec565b5b620009048254620006da565b620009118282856200083a565b5f60209050601f83116001811462000947575f841562000932578287015190505b6200093e8582620008b4565b865550620009ad565b601f19841662000957866200070e565b5f5b82811015620009805784890151825560018201915060208501945060208101905062000959565b86831015620009a057848901516200099c601f89168262000896565b8355505b6001600288020188555050505b505050505050565b620009c08162000567565b82525050565b5f602082019050620009db5f830184620009b5565b92915050565b7f4e487b71000000000000000000000000000000000000000000000000000000005f52601160045260245ffd5b5f62000a1a82620005a9565b915062000a2783620005a9565b925082820190508082111562000a425762000a41620009e1565b5b92915050565b62000a5381620005a9565b82525050565b5f60608201905062000a6e5f830186620009b5565b62000a7d602083018562000a48565b62000a8c604083018462000a48565b949350505050565b5f60208201905062000aa95f83018462000a48565b92915050565b6111458062000abd5f395ff3fe608060405234801561000f575f80fd5b50600436106100b2575f3560e01c806370a082311161006f57806370a082311461018c57806395d89b41146101bc578063a9059cbb146101da578063dd62ed3e1461020a578063e2f273bd1461023a578063f851a44014610256576100b2565b806306fdde03146100b6578063095ea7b3146100d457806318160ddd1461010457806323b872dd14610122578063313ce5671461015257806340c10f1914610170575b5f80fd5b6100be610274565b6040516100cb9190610d56565b60405180910390f35b6100ee60048036038101906100e99190610e07565b610304565b6040516100fb9190610e5f565b60405180910390f35b61010c610326565b6040516101199190610e87565b60405180910390f35b61013c60048036038101906101379190610ea0565b61032f565b6040516101499190610e5f565b60405180910390f35b61015a61035d565b6040516101679190610f0b565b60405180910390f35b61018a60048036038101906101859190610e07565b610365565b005b6101a660048036038101906101a19190610f24565b610402565b6040516101b39190610e87565b60405180910390f35b6101c4610447565b6040516101d19190610d56565b60405180910390f35b6101f460048036038101906101ef9190610e07565b6104d7565b6040516102019190610e5f565b60405180910390f35b610224600480360381019061021f9190610f4f565b6104f9565b6040516102319190610e87565b60405180910390f35b610254600480360381019061024f9190610f24565b61057b565b005b61025e6106a5565b60405161026b9190610f9c565b60405180910390f35b60606003805461028390610fe2565b80601f01602080910402602001604051908101604052809291908181526020018280546102af90610fe2565b80156102fa5780601f106102d1576101008083540402835291602001916102fa565b820191905f5260205f20905b8154815290600101906020018083116102dd57829003601f168201915b5050505050905090565b5f8061030e6106ca565b905061031b8185856106d1565b600191505092915050565b5f600254905090565b5f806103396106ca565b90506103468582856106e3565b610351858585610775565b60019150509392505050565b5f6012905090565b60055f9054906101000a900473ffffffffffffffffffffffffffffffffffffffff1673ffffffffffffffffffffffffffffffffffffffff163373ffffffffffffffffffffffffffffffffffffffff16146103f4576040517f08c379a00000000000000000000000000000000000000000000000000000000081526004016103eb9061105c565b60405180910390fd5b6103fe8282610865565b5050565b5f805f8373ffffffffffffffffffffffffffffffffffffffff1673ffffffffffffffffffffffffffffffffffffffff1681526020019081526020015f20549050919050565b60606004805461045690610fe2565b80601f016020809104026020016040519081016040528092919081815260200182805461048290610fe2565b80156104cd5780601f106104a4576101008083540402835291602001916104cd565b820191905f5260205f20905b8154815290600101906020018083116104b057829003601f168201915b5050505050905090565b5f806104e16106ca565b90506104ee818585610775565b600191505092915050565b5f60015f8473ffffffffffffffffffffffffffffffffffffffff1673ffffffffffffffffffffffffffffffffffffffff1681526020019081526020015f205f8373ffffffffffffffffffffffffffffffffffffffff1673ffffffffffffffffffffffffffffffffffffffff1681526020019081526020015f2054905092915050565b60055f9054906101000a900473ffffffffffffffffffffffffffffffffffffffff1673ffffffffffffffffffffffffffffffffffffffff163373ffffffffffffffffffffffffffffffffffffffff161461060a576040517f08c379a00000000000000000000000000000000000000000000000000000000081526004016106019061105c565b60405180910390fd5b8060055f6101000a81548173ffffffffffffffffffffffffffffffffffffffff021916908373ffffffffffffffffffffffffffffffffffffffff1602179055507fbfc8d7754fec5096becc28e0816011e8d0adcfe752ffa1c88924a7f88b00a41d60055f9054906101000a900473ffffffffffffffffffffffffffffffffffffffff1660405161069a9190610f9c565b60405180910390a150565b60055f9054906101000a900473ffffffffffffffffffffffffffffffffffffffff1681565b5f33905090565b6106de83838360016108e4565b505050565b5f6106ee84846104f9565b90507fffffffffffffffffffffffffffffffffffffffffffffffffffffffffffffffff811461076f5781811015610760578281836040517ffb8f41b20000000000000000000000000000000000000000000000000000000081526004016107579392919061107a565b60405180910390fd5b61076e84848484035f6108e4565b5b50505050565b5f73ffffffffffffffffffffffffffffffffffffffff168373ffffffffffffffffffffffffffffffffffffffff16036107e5575f6040517f96c6fd1e0000000000000000000000000000000000000000000000000000000081526004016107dc9190610f9c565b60405180910390fd5b5f73ffffffffffffffffffffffffffffffffffffffff168273ffffffffffffffffffffffffffffffffffffffff1603610855575f6040517fec442f0500000000000000000000000000000000000000000000000000000000815260040161084c9190610f9c565b60405180910390fd5b610860838383610ab3565b505050565b5f73ffffffffffffffffffffffffffffffffffffffff168273ffffffffffffffffffffffffffffffffffffffff16036108d5575f6040517fec442f050000000000000000000000000000000000000000000000000000000081526004016108cc9190610f9c565b60405180910390fd5b6108e05f8383610ab3565b5050565b5f73ffffffffffffffffffffffffffffffffffffffff168473ffffffffffffffffffffffffffffffffffffffff1603610954575f6040517fe602df0500000000000000000000000000000000000000000000000000000000815260040161094b9190610f9c565b60405180910390fd5b5f73ffffffffffffffffffffffffffffffffffffffff168373ffffffffffffffffffffffffffffffffffffffff16036109c4575f6040517f94280d620000000000000000000000000000000000000000000000000000000081526004016109bb9190610f9c565b60405180910390fd5b8160015f8673ffffffffffffffffffffffffffffffffffffffff1673ffffffffffffffffffffffffffffffffffffffff1681526020019081526020015f205f8573ffffffffffffffffffffffffffffffffffffffff1673ffffffffffffffffffffffffffffffffffffffff1681526020019081526020015f20819055508015610aad578273ffffffffffffffffffffffffffffffffffffffff168473ffffffffffffffffffffffffffffffffffffffff167f8c5be1e5ebec7d5bd14f71427d1e84f3dd0314c0f7b2291e5b200ac8c7c3b92584604051610aa49190610e87565b60405180910390a35b50505050565b5f73ffffffffffffffffffffffffffffffffffffffff168373ffffffffffffffffffffffffffffffffffffffff1603610b03578060025f828254610af791906110dc565b92505081905550610bd1565b5f805f8573ffffffffffffffffffffffffffffffffffffffff1673ffffffffffffffffffffffffffffffffffffffff1681526020019081526020015f2054905081811015610b8c578381836040517fe450d38c000000000000000000000000000000000000000000000000000000008152600401610b839392919061107a565b60405180910390fd5b8181035f808673ffffffffffffffffffffffffffffffffffffffff1673ffffffffffffffffffffffffffffffffffffffff1681526020019081526020015f2081905550505b5f73ffffffffffffffffffffffffffffffffffffffff168273ffffffffffffffffffffffffffffffffffffffff1603610c18578060025f8282540392505081905550610c62565b805f808473ffffffffffffffffffffffffffffffffffffffff1673ffffffffffffffffffffffffffffffffffffffff1681526020019081526020015f205f82825401925050819055505b8173ffffffffffffffffffffffffffffffffffffffff168373ffffffffffffffffffffffffffffffffffffffff167fddf252ad1be2c89b69c2b068fc378daa952ba7f163c4a11628f55a4df523b3ef83604051610cbf9190610e87565b60405180910390a3505050565b5f81519050919050565b5f82825260208201905092915050565b5f5b83811015610d03578082015181840152602081019050610ce8565b5f8484015250505050565b5f601f19601f8301169050919050565b5f610d2882610ccc565b610d328185610cd6565b9350610d42818560208601610ce6565b610d4b81610d0e565b840191505092915050565b5f6020820190508181035f830152610d6e8184610d1e565b905092915050565b5f80fd5b5f73ffffffffffffffffffffffffffffffffffffffff82169050919050565b5f610da382610d7a565b9050919050565b610db381610d99565b8114610dbd575f80fd5b50565b5f81359050610dce81610daa565b92915050565b5f819050919050565b610de681610dd4565b8114610df0575f80fd5b50565b5f81359050610e0181610ddd565b92915050565b5f8060408385031215610e1d57610e1c610d76565b5b5f610e2a85828601610dc0565b9250506020610e3b85828601610df3565b9150509250929050565b5f8115159050919050565b610e5981610e45565b82525050565b5f602082019050610e725f830184610e50565b92915050565b610e8181610dd4565b82525050565b5f602082019050610e9a5f830184610e78565b92915050565b5f805f60608486031215610eb757610eb6610d76565b5b5f610ec486828701610dc0565b9350506020610ed586828701610dc0565b9250506040610ee686828701610df3565b9150509250925092565b5f60ff82169050919050565b610f0581610ef0565b82525050565b5f602082019050610f1e5f830184610efc565b92915050565b5f60208284031215610f3957610f38610d76565b5b5f610f4684828501610dc0565b91505092915050565b5f8060408385031215610f6557610f64610d76565b5b5f610f7285828601610dc0565b9250506020610f8385828601610dc0565b9150509250929050565b610f9681610d99565b82525050565b5f602082019050610faf5f830184610f8d565b92915050565b7f4e487b71000000000000000000000000000000000000000000000000000000005f52602260045260245ffd5b5f6002820490506001821680610ff957607f821691505b60208210810361100c5761100b610fb5565b5b50919050565b7f4f6e6c792061646d696e2063616e206d616b6520746869732063616c6c0000005f82015250565b5f611046601d83610cd6565b915061105182611012565b602082019050919050565b5f6020820190508181035f8301526110738161103a565b9050919050565b5f60608201905061108d5f830186610f8d565b61109a6020830185610e78565b6110a76040830184610e78565b949350505050565b7f4e487b71000000000000000000000000000000000000000000000000000000005f52601160045260245ffd5b5f6110e682610dd4565b91506110f183610dd4565b9250828201905080821115611109576111086110af565b5b9291505056fea264697066735822122048c9cdb4a11a5229f26c719f9b0ec03761c386f7f8de2b48f7af404e16f85f2b64736f6c63430008140033",
  "immutableReferences": {},
  "source": "// SPDX-License-Identifier: MIT\npragma solidity ^0.8.20;\nimport \"@openzeppelin/contracts/token/ERC20/ERC20.sol\";\n\ncontract TNT20 is ERC20 {\n   event UpdateAdmin(address newAdmin);\n\n    address public admin;\n\n    constructor(string memory name, string memory symbol, \n        address initDistrWallet, uint initMintAmount, address adminAddr) ERC20(name, symbol) {\n        _mint(initDistrWallet, initMintAmount);\n        admin = adminAddr;\n        emit UpdateAdmin(admin);\n    }\n\n    function mint(address receiver, uint amount) external adminOnly {\n        _mint(receiver, amount);\n    }\n    \n    function updateAdmin(address adminAddr) external adminOnly {\n        admin = adminAddr;\n        emit UpdateAdmin(admin);\n    }\n\n    modifier adminOnly() { \n        require(msg.sender == admin, \"Only admin can make this call\");\n        _;\n    }\n}\n",
  "sourcePath": "/Users/nishthapatel/Desktop/Hackathon-Projects/Theta-Network-2024-Hackathon/backend/truffle/contracts/TNT20.sol",
  "compiler": {
    "name": "solc",
    "version": "0.8.20+commit.a1b79de6.Emscripten.clang"
  },
  "schemaVersion": "3.4.16",
  "updatedAt": "2024-07-20T01:10:49.238Z",
  "devdoc": {
    "errors": {
      "ERC20InsufficientAllowance(address,uint256,uint256)": [
        {
          "details": "Indicates a failure with the `spender`s `allowance`. Used in transfers.",
          "params": {
            "allowance": "Amount of tokens a `spender` is allowed to operate with.",
            "needed": "Minimum amount required to perform a transfer.",
            "spender": "Address that may be allowed to operate on tokens without being their owner."
          }
        }
      ],
      "ERC20InsufficientBalance(address,uint256,uint256)": [
        {
          "details": "Indicates an error related to the current `balance` of a `sender`. Used in transfers.",
          "params": {
            "balance": "Current balance for the interacting account.",
            "needed": "Minimum amount required to perform a transfer.",
            "sender": "Address whose tokens are being transferred."
          }
        }
      ],
      "ERC20InvalidApprover(address)": [
        {
          "details": "Indicates a failure with the `approver` of a token to be approved. Used in approvals.",
          "params": {
            "approver": "Address initiating an approval operation."
          }
        }
      ],
      "ERC20InvalidReceiver(address)": [
        {
          "details": "Indicates a failure with the token `receiver`. Used in transfers.",
          "params": {
            "receiver": "Address to which tokens are being transferred."
          }
        }
      ],
      "ERC20InvalidSender(address)": [
        {
          "details": "Indicates a failure with the token `sender`. Used in transfers.",
          "params": {
            "sender": "Address whose tokens are being transferred."
          }
        }
      ],
      "ERC20InvalidSpender(address)": [
        {
          "details": "Indicates a failure with the `spender` to be approved. Used in approvals.",
          "params": {
            "spender": "Address that may be allowed to operate on tokens without being their owner."
          }
        }
      ]
    },
    "events": {
      "Approval(address,address,uint256)": {
        "details": "Emitted when the allowance of a `spender` for an `owner` is set by a call to {approve}. `value` is the new allowance."
      },
      "Transfer(address,address,uint256)": {
        "details": "Emitted when `value` tokens are moved from one account (`from`) to another (`to`). Note that `value` may be zero."
      }
    },
    "kind": "dev",
    "methods": {
      "allowance(address,address)": {
        "details": "See {IERC20-allowance}."
      },
      "approve(address,uint256)": {
        "details": "See {IERC20-approve}. NOTE: If `value` is the maximum `uint256`, the allowance is not updated on `transferFrom`. This is semantically equivalent to an infinite approval. Requirements: - `spender` cannot be the zero address."
      },
      "balanceOf(address)": {
        "details": "See {IERC20-balanceOf}."
      },
      "decimals()": {
        "details": "Returns the number of decimals used to get its user representation. For example, if `decimals` equals `2`, a balance of `505` tokens should be displayed to a user as `5.05` (`505 / 10 ** 2`). Tokens usually opt for a value of 18, imitating the relationship between Ether and Wei. This is the default value returned by this function, unless it's overridden. NOTE: This information is only used for _display_ purposes: it in no way affects any of the arithmetic of the contract, including {IERC20-balanceOf} and {IERC20-transfer}."
      },
      "name()": {
        "details": "Returns the name of the token."
      },
      "symbol()": {
        "details": "Returns the symbol of the token, usually a shorter version of the name."
      },
      "totalSupply()": {
        "details": "See {IERC20-totalSupply}."
      },
      "transfer(address,uint256)": {
        "details": "See {IERC20-transfer}. Requirements: - `to` cannot be the zero address. - the caller must have a balance of at least `value`."
      },
      "transferFrom(address,address,uint256)": {
        "details": "See {IERC20-transferFrom}. Emits an {Approval} event indicating the updated allowance. This is not required by the EIP. See the note at the beginning of {ERC20}. NOTE: Does not update the allowance if the current allowance is the maximum `uint256`. Requirements: - `from` and `to` cannot be the zero address. - `from` must have a balance of at least `value`. - the caller must have allowance for ``from``'s tokens of at least `value`."
      }
    },
    "version": 1
  },
  "userdoc": {
    "kind": "user",
    "methods": {},
    "version": 1
  }
}